:020000040800F2
:100000000000022015020008110200081102000879
:10001000110200081102000811020008000000008F
:1000200000000000000000000000000011020008B5
:10003000110200080000000011020008110200086F
:100040001102000811020008110200081102000844
:100050001102000811020008110200081102000834
:100060001102000811020008110200081102000824
:100070001102000811020008110200081102000814
:100080001102000811020008110200081102000804
:1000900011020008110200081102000811020008F4
:1000A00011020008110200081102000811020008E4
:1000B00011020008110200081102000811020008D4
:1000C00011020008110200081102000811020008C4
:1000D00011020008110200081102000811020008B4
:1000E00011020008110200081102000811020008A4
:1000F0001102000811020008110200081102000894
:100100001102000811020008110200081102000883
:100110001102000811020008110200081102000873
:100120001102000811020008110200081102000863
:100130001102000811020008110200081102000853
:100140001102000811020008110200081102000843
:100150001102000811020008110200081102000833
:100160001102000811020008110200081102000823
:100170001102000811020008110200081102000813
:100180001102000811020008110200081102000803
:1001900011020008110200081102000811020008F3
:0C01A00011020008110200081102000802
:1001AC000C4A0D4C08B5D2F8303843F04003C2F875
:1001BC003038D4F8003843F0A053C4F80038D4F8E1
:1001CC00143883F4C0430120C4F8143800F006F846
:1001DC00F5E700BF0030024000100240074B084A10
:1001EC0003FB00F0A2FB00320C284FEA920204D968
:1001FC00002300BF01339A42FBD870470024F4005F
:10020C004FECC44EFEE700BF0D480E4A904208B5B5
:10021C0007D2013A121A22F003020B49043200F001
:10022C0021F80A480A4A904207D2013A121A22F0DF
:10023C0003020432002100F00DF8FFF7B1FFFEE7D6
:10024C0000000020000000208C02000800000020AC
:10025C000000002002440346934200D1704703F88B
:10026C00011BF9E70A44914200F1FF3300D17047BA
:10027C0010B511F8014B03F8014F9142F9D110BDA3
:0400000508000215D8
:00000001FF
